:020000040800F2
:1000000000000120C5020008CB020008CF02000852
:1000100041030008450300088D03000800000000AC
:10002000000000000000000000000000D5030008F0
:10003000D903000800000000DD030008650800087F
:10004000F1030008F1030008F1030008F1030008C0
:10005000F1030008F1030008F1030008F1030008B0
:10006000F1030008F1030008F1030008F1030008A0
:10007000F1030008F1030008F1030008F103000890
:10008000F1030008F1030008F1030008000000007C
:10009000000000000000000000000000F103000864
:1000A000F1030008F1030008F1030008F103000860
:1000B000F1030008F1030008F1030008F103000850
:1000C000F1030008F1030008F1030008F103000840
:1000D000F1030008D1070008ED0700080000000048
:1000E000F1030008F1030008F1030008000000001C
:1000F000000000000000000000000000F103000804
:1001000000000000F1030008F1030008F1030008FB
:1001100000000000000000000000000000000000DF
:10012000F1030008F1030008F1030008F1030008DF
:10013000F1030008000000000000000000000000C3
:10014000000000000000000000000000F1030008B3
:10015000F1030008F1030008F10300080908000892
:10016000F1030008F1030008000000000000000097
:10017000000000000000000000000000000000007F
:1001800000000000F1030008000000000000000073
:10019000F103000800B583B000F0BAF9384B394AD2
:1001A0001360394A1360394900E02146384B9942BF
:1001B0000BD20A684B6801F10C0488689842F4D9A4
:1001C0001168196004330432F8E72E4B1A68314B7A
:1001D0009A4200D0FEE72C4B1A682F4B9A42F9D175
:1001E000274B2E4A13602E4A13602E4B05E0002049
:1001F000106004329342FAD80B462B4A934204D241
:10020000194651F8082B5B68F4E7244B1B6813B9B7
:10021000234B1B6803B1FEE701F0FAF8694601A819
:1002200000F022F9214C224BE41AA4100025AC4224
:1002300014DC204C204BE41AA4100025AC4213DC43
:100240000099019801F0E6F805461C4C1C4BE41A95
:10025000A410002C0EDC284600F0E2F8144B53F8F2
:10026000253098470135E2E7134B53F8253098477E
:100270000135E3E7013C124B53F824309847E8E797
:10028000BABADECA0000002084000020F40300088F
:100290000C040008785634123254769888000020F6
:1002A000680200200C0400081C0400081C0400085C
:1002B0001C0400081C0400081C0400081C0400089E
:1002C0001C04000808B5FFF765FF00BEFEE71EF03E
:1002D000040F0CBFEFF30880EFF309807146414A29
:1002E00010472DE9F04182B004468846124B5E6B00
:1002F0009F6B9D6A1B6B13F0020F03D00E4BDB6AE2
:10030000002B0CDB0D4800F0B7F8CDF800803B4621
:1003100032462946204600F007F900BEFEE74BF6BC
:10032000AB6100F07BF90028ECD0034B4FF00042AA
:10033000DA6202B0BDE8F08100ED00E0542400086C
:1003400000BEFEE71EF0040F0CBFEFF30880EFF3D2
:1003500009807146244A10472DE9F04182B00446D5
:100360008846084B5E6B9F6B9D6A074800F084F8D7
:10037000CDF800803B4632462946204600F0D4F8AE
:1003800000BEFEE700ED00E0642400081EF0040F4C
:100390000CBFEFF30880EFF309807146134A104752
:1003A0002DE9F04182B004468846084B5E6B9F6B96
:1003B0009D6A074800F060F8CDF800803B46324661
:1003C0002946204600F0B0F800BEFEE700ED00E050
:1003D0007024000800BEFEE700BEFEE700BEFEE798
:1003E00070470000E302000859030008A103000859
:0403F00000BEFEE766
:1003F4004825000800000020880000204825000847
:100404000000001000000010880000206C02002092
:080414000000001000000010C0
:10042000FEE7000008B503460C4A12685AB10B4AB1
:100430001068033323F003030344094A934206D8A8
:10044000064A136008BD054A06491160EFE701F04E
:10045000F1FA0C2303604FF0FF30F3E78C0000202B
:1004600000FC00206C02002001230360014B0B60A4
:10047000704700BF040000200FB400B583B004AB88
:1004800053F8042B01938021064801F00DFB00284E
:1004900003DD0146034800F037F803B05DF804EBD4
:1004A00004B07047940000202DE9F04385B0044665
:1004B0000F4643560BB10E461EE004252846214642
:1004C000ABBE0446384605B0BDE8F08314F9011B05
:1004D00004AA1A4402F8101C0133AB42F6D304AA52
:1004E0001344002203F8102C4FF00408E94640465C
:1004F0004946ABBE8046761B002EE3D03546102E13
:1005000028BF10250023E8E708B5FFF7CDFF08BD99
:1005100008B500F093F8024A024B9A6008BD00BF8C
:100520000000000800ED00E0F8B504460D4617464F
:100530001E462748FFF7A0FF21682648FFF79CFFCB
:1005400061682548FFF798FFA1682448FFF794FFEA
:10055000E1682348FFF790FF21692248FFF78CFFED
:1005600061692148FFF788FFA1692048FFF784FFF0
:10057000E1691F48FFF780FF1E48FFF77DFF29460E
:100580001D48FFF779FF1D4CE16A1D48FFF774FF16
:10059000216B1C48FFF770FFE16B1B48FFF76CFFF6
:1005A00015F0800F0AD115F4004F0CD11748FFF752
:1005B00063FF06991648FFF75FFFF8BD39461548F7
:1005C000FFF75AFFEFE731461348FFF755FFEDE716
:1005D000382300084823000858230008682300082F
:1005E000782300088823000898230008A82300081F
:1005F000B8230008C8230008D423000800ED00E059
:10060000E4230008F423000804240008342400082C
:100610003C240008142400082424000883691A8854
:100620008A4201D0002070470268033A012A03D8A9
:100630000233836101207047002070470C4B1A6819
:1006400042F001021A60002199601A6822F0847257
:1006500022F480321A60074A5A601A6822F4802213
:100660001A60D960044B4FF000629A60704700BF77
:10067000003802401030002400ED00E000000000CF
:1006800070B505460C460023CB60C389DBB1012B56
:1006900036D0EA89AB881B0343EAC2332A8943EA8E
:1006A00082236A8943EA4223E360AB89012B4CD061
:1006B000002B45D0022B4DD000232360236823F06C
:1006C0002003236070BD03689A009B0F26A1D1E927
:1006D000000101F02FF8264EA6FB003251096422DA
:1006E00002FB110213013233A6FB03235B0903F063
:1006F000F00202EB011203F00F031344A360C8E7FA
:1007000002680021921841EB010317A1D1E9000111
:1007100001F010F8164EA6FB00325109642202FBCC
:100720001102D3003233A6FB03235B095A0002F403
:10073000F87202EB011203F007031344A360A8E769
:10074000E36843F00803E360B6E7E36843F00403BB
:10075000E360B1E7E36843F00803E360E36843F074
:100760000403E360A8E700BF00C2EB0B0000000039
:100770001F85EB51036823F020030360C36843F433
:100780000053C3607047036813F0800FFBD04160D3
:10079000036813F0400FFBD0036823F040030360AD
:1007A000704700000023026812F0200F04D1064AAF
:1007B000934201D80133F6E7044A934202D04068DD
:1007C000C0B27047FF2070471FA1070020A107009B
:1007D00008B5044B00221A60034B1B6803B198470D
:1007E00008BD00BF001001406402002008B5044BA2
:1007F00000221A60034B1B6803B1984708BD00BF75
:10080000004400405C02002008B5044B00221A603E
:10081000034B1B6803B1984708BD00BF001401409B
:1008200060020020024A136823F00403136070473B
:1008300010E000E00A4B586000229A601A6842F00B
:1008400001021A60064B1B6813F4803FFAD0044B78
:100850001A6822F001021A6000225A609A607047FA
:1008600010E000E008B50D4B1B78012B06D00C4BB7
:100870001B6803B198470B4B1B6808BD094B1A68EE
:1008800022F002021A601A6822F001021A600022A5
:100890005A609A60014B1A70E9E700BF1801002006
:1008A0001401002010E000E00E4B1A6842F4002210
:1008B0001A601A6822F480221A601A6842F0010253
:1008C0001A601A6842F480321A609A6822F00102B3
:1008D0009A609A6822F002029A609A6842F0800256
:1008E0009A6070470038024003282AD81F292AD866
:1008F000431E032B29D8DFE803F0020C141C10B4AC
:10090000134C236B012202FA01F11943216310BC3D
:1009100070470F4A136C012000FA01F1194311646A
:1009200070470B4A536C012000FA01F119435164DE
:100930007047074A136D012000FA01F11943116550
:10094000704700207047002070470020704700BFAC
:100950000038024010B4012812D018B102281DD06E
:1009600010BC7047144B1868490003248C4020EADF
:1009700004001860186802FA01F101431960EFE7FA
:100980000E4B1868490003248C4020EA04001860CC
:10099000186802FA01F101431960E1E7084B186891
:1009A000490003248C4020EA04001860186802FA09
:1009B00001F101431960D3E7000002400004024046
:1009C0000008024002BB01280CD010B1022812D04E
:1009D00070471E484368012202FA01F123EA01012F
:1009E000416070471A484368012202FA01F123EA84
:1009F00001014160704717484368012202FA01F182
:100A000023EA010141607047012A00D070470128A4
:100A10000BD010B1022810D070470C484368012257
:100A200002FA01F119434160704709484368012205
:100A300002FA01F1194341607047064843680122F8
:100A400002FA01F119434160E0E700BF00000240F3
:100A5000000402400008024010B4012812D018B16E
:100A600002281DD010BC7047144B9868490003241D
:100A70008C4020EA04009860986802FA01F1014372
:100A80009960EFE70E4B9868490003248C4020EAF8
:100A900004009860986802FA01F101439960E1E767
:100AA000084B9868490003248C4020EA04009860B1
:100AB000986802FA01F101439960D3E7000002400F
:100AC00000040240000802400F2933D8032A31D81D
:100AD00010B4012812D018B102281DD010BC7047E4
:100AE000154BD868490003248C4020EA0400D860E4
:100AF000D86802FA01F10143D960EFE70F4BD868DB
:100B0000490003248C4020EA0400D860D86802FA27
:100B100001F10143D960E1E7094BD868490003249A
:100B20008C4020EA0400D860D86802FA01F1014341
:100B3000D960D3E7704700BF0000024000040240C4
:100B40000008024001280AD018B102280DD0022066
:100B50007047094B1869C84000F001007047074B07
:100B60001869C84000F001007047054B1869C8407B
:100B700000F00100704700BF000002400004024086
:100B800000080240012A07D0002A3DD101282AD0BE
:100B900000B3022830D0704701280BD010B10228D2
:100BA00010D0704719484369012202FA01F1194334
:100BB0004161704716484369012202FA01F1194365
:100BC0004161704713484369012202FA01F1194358
:100BD000416170470D484369012202FA01F123EA9D
:100BE0000101416170470A484369012202FA01F19B
:100BF00023EA01014161704706484369012202FA74
:100C000001F123EA01014161704700BF0000024089
:100C1000000402400008024010B4072920D818B18F
:100C200001280FD010BC7047204B186A89000F2490
:100C30008C4020EA04001862186A02FA01F10143AC
:100C40001962EFE71A4B186A89000F248C4020EADA
:100C500004001862186A02FA01F101431962E1E71F
:100C60000F29DFD888B10128DCD11048446AA1F1EE
:100C700008039B000F21994024EA01014162446A64
:100C800002FA03F121434162CCE7084B5C6AA1F10F
:100C9000080080000F21814024EA010159625C6A4A
:100CA00002FA00F121435962BCE700BF0000024094
:100CB0000004024010B50446827841780078FFF7BE
:100CC00049FEE27861782078FFF77CFE227961782E
:100CD0002078FFF7C1FE627961782078FFF7F4FE93
:100CE000A27961782078FFF797FF10BD10B5044610
:100CF000002209210120FFF745FFE2090821012018
:100D0000FFF740FFC4F3801207210120FFF73AFFED
:100D1000C4F3401206210120FFF734FFC4F3001290
:100D200005210120FFF72EFF01220A211046FFF7BF
:100D300029FF4FF47A70FFF77DFD00220A21012080
:100D4000FFF720FF4FF47A70FFF774FDC4F3C00281
:100D500008210120FFF716FFC4F3800207210120BC
:100D6000FFF710FFC4F3400206210120FFF70AFF3E
:100D700004F0010205210120FFF704FF01220A21EE
:100D80001046FFF7FFFE4FF47A70FFF753FD002285
:100D90000A210120FFF7F6FE4FF47A70FFF74AFDB3
:100DA00010BD10B50446012209211046FFF7EAFEE6
:100DB000E20908210120FFF7E5FEC4F380120721B4
:100DC0000120FFF7DFFEC4F3401206210120FFF7E8
:100DD000D9FEC4F3001205210120FFF7D3FE012242
:100DE0000A211046FFF7CEFE4FF47A70FFF722FD7E
:100DF00000220A210120FFF7C5FE4FF47A70FFF7A9
:100E000019FDC4F3C00208210120FFF7BBFEC4F3A3
:100E1000800207210120FFF7B5FEC4F3400206213E
:100E20000120FFF7AFFE04F0010205210120FFF7CA
:100E3000A9FE01220A211046FFF7A4FE4FF47A70A2
:100E4000FFF7F8FC00220A210120FFF79BFE4FF478
:100E50007A70FFF7EFFC10BD08B54CF25030FFF789
:100E6000E9FC0220FFF742FF2820FFF73FFF0C209C
:100E7000FFF73CFF0120FFF739FF4FF47A70FFF7CF
:100E8000D9FC0620FFF732FF08BD08B5FFF789FF40
:100E900008BD38B50546002403E0FFF782FF0134A2
:100EA000E4B2285D0028F8D138BD000030B587B025
:100EB00020B10546002805DB00241CE03020FFF7A8
:100EC000E4FF27E045422D20FFF7DFFFF4E7124A59
:100ED00082FB0532EB17C3EBA203194603EB830336
:100EE0005A00AB1ADBB2303306AA224402F8143C93
:100EF0000D460134E4B2002DE9DC013C64B207E0A8
:100F000006AB234413F8140CFFF7BFFF013C64B297
:100F1000002CF5DA07B030BD6766666608B510B11B
:100F2000012805D008BD41F08000FFF7DFFEF9E79A
:100F30004039C8B2FFF7DAFEF4E708B50120FFF741
:100F4000D5FE08BD70B54C4CEF212046FFF71BFCC9
:100F500001212046FFF717FCFF212046FFF713FC75
:100F6000FF212046FFF70FFCFF212046FFF70BFC77
:100F7000FF212046FFF707FC01212046FFF703FC75
:100F800000212046FFF7FFFB03212046FFF7FBFB74
:100F900001212046FFF7F7FB00212046FFF7F3FB76
:100FA00005212046FFF7EFFB002416E00134092C51
:100FB00012DC3148FFF7F6FB0546092CF6D12E4E20
:100FC0003046FFF7EFFB3046FFF7ECFB002D51D02A
:100FD000212DEBD101204CE00134092C48DC2648BE
:100FE000FFF7E0FB0546254B1855092CF4D1224E9E
:100FF0003046FFF7D7FB3046FFF7D4FB0DB1212D6C
:10100000EAD11D4CEF212046FFF7BDFB0121204610
:10101000FFF7B9FBFF212046FFF7B5FBFF21204674
:10102000FFF7B1FBFF212046FFF7ADFBFF21204674
:10103000FFF7A9FB01212046FFF7A5FB0021204671
:10104000FFF7A1FB04212046FFF79DFB022120466C
:10105000FFF799FB01212046FFF795FB0021204671
:10106000FFF791FB08212046FFF78DFB00249EE748
:10107000002070BD0120FCE7004400401C0100205E
:1010800070B54C4CEF212046FFF77DFB0121204637
:10109000FFF779FBFF212046FFF775FBFF21204674
:1010A000FFF771FBFF212046FFF76DFBFF21204674
:1010B000FFF769FB01212046FFF765FB0021204671
:1010C000FFF761FB03212046FFF75DFB012120466E
:1010D000FFF759FB00212046FFF755FB052120466D
:1010E000FFF751FB002416E00134092C12DC3148D3
:1010F000FFF758FB45B2092CF6D12E4E3046FFF7CC
:1011000051FB3046FFF74EFB002D51D0212DEBD186
:1011100001204CE00134092C48DC2648FFF742FB53
:1011200045B2254B1855092CF4D1224E3046FFF715
:1011300039FB3046FFF736FB0DB1212DEAD11D4CAE
:10114000EF212046FFF71FFB01212046FFF71BFB85
:10115000FF212046FFF717FBFF212046FFF713FB77
:10116000FF212046FFF70FFBFF212046FFF70BFB77
:1011700001212046FFF707FB00212046FFF703FB74
:1011800004212046FFF7FFFA02212046FFF7FBFA71
:1011900002212046FFF7F7FA00212046FFF7F3FA75
:1011A00009212046FFF7EFFA00249EE7002070BDDA
:1011B0000120FCE7004400408001002038B5224CAB
:1011C000EF212046FFF7DFFA01212046FFF7DBFA87
:1011D000FF212046FFF7D7FAFF212046FFF7D3FA79
:1011E000FF212046FFF7CFFAFF212046FFF7CBFA79
:1011F00001212046FFF7C7FA00212046FFF7C3FA76
:1012000003212046FFF7BFFA05212046FFF7BBFA6E
:1012100000212046FFF7B7FA09212046FFF7B3FA6D
:10122000002400E00134092C0CDC0748FFF7BAFA6F
:10123000092CF7D1044D2846FFF7B4FA2846FFF7EA
:10124000B1FAEFE738BD00BF004400402DE9F0419E
:1012500080460F46CEB206F10E05EDB2294CEF21C5
:101260002046FFF790FA01212046FFF78CFAFF2174
:101270002046FFF788FAFF212046FFF784FAFF2176
:101280002046FFF780FAFF212046FFF77CFA012174
:101290002046FFF778FA00212046FFF774FA06216E
:1012A0002046FFF770FA06212046FFF76CFA414608
:1012B0002046FFF768FAC7F307212046FFF763FAD5
:1012C00031462046FFF75FFA00212046FFF75BFA20
:1012D00029462046FFF757FA002401E00134E4B222
:1012E000092C0CD80748FFF75DFA092CF6D1054DFB
:1012F0002846FFF757FA2846FFF754FAEEE7BDE80D
:10130000F08100BF0044004070B53B4CEF21204607
:10131000FFF739FA01212046FFF735FAFF21204671
:10132000FFF731FAFF212046FFF72DFAFF21204673
:10133000FFF729FAFF212046FFF725FA0121204671
:10134000FFF721FA00212046FFF71DFA0821204669
:10135000FFF719FA04212046FFF715FA012120466C
:10136000FFF711FA00212046FFF70DFA0A21204667
:10137000FFF709FA00212046FFF705FA5A21204617
:10138000FFF701FA00212046FFF7FDF97221204600
:10139000FFF7F9F9002400E00134092C28DC164895
:1013A000FFF700FA0546154B1855092CF4D1124EDB
:1013B0003046FFF7F7F9124B18703046FFF7F2F995
:1013C000104B18703046FFF7EDF90F4B1870304690
:1013D000FFF7E8F90D4B18703046FFF7E3F9304698
:1013E000FFF7E0F9212D05D0002DD5D1012000E037
:1013F000002070BD0120FCE700440040E401002013
:101400004A0200204B02002048020020490200202E
:101410007047000070B59AB0FFF746FA112102201C
:10142000FFF762FA00210120FFF75EFA012108466A
:10143000FFF75AFAFFF7F6F90E210320FFF754FAE7
:1014400000251895CDF8635002238DF861308DF892
:10145000623001248DF8644007268DF86660169589
:10146000CDF85B5003228DF859208DF85A308DF855
:101470005C408DF85E601495CDF853508DF8504067
:101480008DF85540CDF84A508DF84E508DF84840B3
:101490008DF849408DF84D40442229460DEB03005C
:1014A00000F0CEFA8DF8004005238DF801308DF85C
:1014B00002408DF8074006238DF808308DF809406A
:1014C0008DF80E408DF80F608DF810408DF81240A9
:1014D0008DF8154008238DF816308DF817408DF8DB
:1014E00019408DF81C4009238DF81D308DF81E40E1
:1014F0008DF820408DF823400A238DF824308DF894
:1015000025408DF8274006E0C5EBC5006844FFF78D
:10151000D1FB0135EDB2052DF6D918A8FFF7CAFBAE
:1015200016A8FFF7C7FB14A8FFF7C4FB12A8FFF724
:10153000C1FB6D484FF4165303606C4C2146FFF716
:101540009FF82046FFF716F9FFF786FC86E09DF826
:1015500051109DF85000FFF7F5FA0028F7D0644BC2
:1015600001221A7083E000210846FFF7D7FC61488A
:10157000FFF78FFC00210120FFF7D0FC5E48FFF74A
:1015800088FC4FF47A70FFF755F95C4B1B78012B00
:1015900064D0FFF7D7FC5A4B18700128F5D1594891
:1015A000FFF748F9FFF76CFD544B187001280DD078
:1015B000FFF7C3FC00210846FFF7B0FC4FF47A7038
:1015C000FFF738F95048FFF764FCDEE7FFF7F6FD58
:1015D0004C48FFF72FF94D4C21780120FFF736FEDC
:1015E000FFF7ABFC00210846FFF798FC4848FFF7DF
:1015F00050FC00210120FFF791FC4648FFF749FC11
:101600002078FFF753FC4448FFF743FC4348FFF7BB
:1016100011F92378013323700023384A1370344AB8
:1016200013701BE0FFF789FC00210846FFF776FCEA
:101630003B48FFF72EFC00210120FFF76FFC3548E7
:10164000FFF727FC374B1878FFF730FC3248FFF7DD
:1016500020FC2046FFF7EEF8FFF76FFC9DF85110D5
:101660009DF85000FFF76EFA00283FF470AF204B52
:101670001B78012B3FF477AF002BEFD1FFF75DFC18
:1016800000210846FFF74AFC2748FFF702FC4FF409
:101690007A70FFF7CFF8FFF755FC194B1870012847
:1016A000DCD1FFF74AFC00210846FFF737FC1F4852
:1016B000FFF7EFFB134C2046FFF7BCF8FFF77EFD6A
:1016C0002046FFF7B7F8FFF71FFE0128AAD0FFF763
:1016D00034FC00210846FFF721FC1548FFF7D9FB31
:1016E0000848FFF7A7F8B9E70C00002000440040C5
:1016F0004E02002080240008942400084D0200209F
:101700004C02002040420F00C42400081C000020AE
:10171000A0240008BC240008C024000880841E0007
:10172000F82400084B020020D0240008E824000818
:101730000025000853B94AB9002908BF00281CBF7A
:101740004FF0FF314FF0FF3000F072B9ADF1080CEF
:101750006DE904CE00F006F8DDF804E0DDE90223CF
:1017600004B070472DE9F047089E04468846002BD8
:101770004BD18A42154667D9B2FA82F24AB1C2F118
:10178000200701FA02F320FA07F7954047EA030819
:1017900094404FEA154E230CB8FBFEF71FFA85FC68
:1017A0000EFB178843EA084307FB0CF1994209D95D
:1017B000EB1807F1FF3080F01B81994240F218814D
:1017C000023F2B445B1AA4B2B3FBFEF00EFB1033B6
:1017D00044EA034400FB0CFCA44509D92C1900F190
:1017E000FF3380F00781A44540F2048102382C4485
:1017F00040EA0740A4EB0C0400271EB1D4400023AC
:10180000C6E900433946BDE8F0878B4209D9002E6E
:1018100000F0EB800027C6E9000138463946BDE8F4
:10182000F087B3FA83F7002F47D18B4202D382426D
:1018300000F2FA80841A61EB030301209846002E1F
:10184000E0D0C6E90048DDE702B9FFDEB2FA82F275
:10185000002A40F08F80491B4FEA154E1FFA85F889
:101860000127B1FBFEFC230C0EFB1C1143EA0143D4
:1018700008FB0CF1994207D9EB180CF1FF3002D2AA
:10188000994200F2CD808446591AA3B2B1FBFEF012
:101890000EFB101443EA044408FB00F8A04507D9E6
:1018A0002C1900F1FF3302D2A04500F2B680184691
:1018B000A4EB080440EA0C409FE7C7F1200CBB40B2
:1018C00022FA0CFE4EEA030E01FA07F420FA0CF598
:1018D00021FA0CF34FEA1E482543B3FBF8F92C0C10
:1018E00008FB19331FFA8EFA44EA034309FB0AF492
:1018F0009C4202FA07F200FA07F10BD91EEB030330
:1019000009F1FF3080F087809C4240F28480A9F189
:10191000020973441B1BADB2B3FBF8F008FB103394
:1019200045EA034400FB0AFAA24508D91EEB040469
:1019300000F1FF336BD2A24569D90238744440EA02
:101940000940A0FB0289A4EB0A044C45C2464B4661
:1019500054D351D0002E69D0B1EB0A0564EB0304D7
:1019600004FA0CFCFD40FC404CEA0505C6E90054B5
:10197000002747E7C2F1200320FA03F7954001FA58
:1019800002F021FA03F34FEA154E3843010CB3FB82
:10199000FEF71FFA85F80EFB173341EA034107FBF8
:1019A00008F38B4204FA02F407D9691807F1FF3CE7
:1019B0002FD28B422DD9023F2944CB1A81B2B3FBDF
:1019C000FEF00EFB103341EA034100FB08F38B42AB
:1019D00007D9691800F1FF3C17D28B4215D902389C
:1019E0002944C91A40EA07473BE73746304609E72A
:1019F0000746E7E61846FBE64145ABD2B8EB020ADC
:101A000069EB0E0201381346A4E76046E9E7184681
:101A100095E76746D1E781467CE702382C4447E7E3
:101A2000ACF1020C2B442FE7384608E73746E9E6CD
:101A3000704700BF014B1868704700BF20000020AE
:101A400002440346934200D1704703F8011BF9E7B3
:101A500030B5141E05469BB0184605DA8B232B6063
:101A60004FF0FF301BB030BD4FF40273ADF80C30B7
:101A700014BF04F1FF332346029305934FF6FF731F
:101A800000910491ADF80E3002461E9B694628462F
:101A900000F072F8431CBCBF8B232B60002CE1D0FC
:101AA000009B00221A70DDE707B5009313460A4633
:101AB000014603480068FFF7CBFF03B05DF804FB65
:101AC000200000202DE9F0478E689E4282460C4699
:101AD0009046994637D88A8912F4906F31D025689C
:101AE00009696F1A6569022305EB450595FBF3F556
:101AF00009F101033B449D4238BF1D46530530D5D3
:101B0000294600F07FFB064650B90C23CAF8003086
:101B1000A38943F04003A3814FF0FF30BDE8F08775
:101B20003A46216900F0FCFAA38923F4906343F05C
:101B30008003A381266165613E44ED1B2660A5609C
:101B40004E464E4500D94E4632464146206800F08A
:101B5000F2FAA3689B1BA36023681E442660002042
:101B6000DCE72A4600F0A8FB06460028E2D12169FE
:101B7000504600F0F9FAC8E72DE9F04F9DB08046D5
:101B800003938B891D060C4616460FD50B696BB95E
:101B9000402100F037FB2060206128B90C23C8F8F1
:101BA00000304FF0FF30C7E040236361002309930A
:101BB00020238DF8293030238DF82A304FF0010B87
:101BC00037463D4615F8013B0BB1252B3ED1B7EB0F
:101BD000060A0BD05346324621464046FFF772FFB5
:101BE000013000F0A480099B534409933B78002BFB
:101BF00000F09D8000234FF0FF32CDE905230493D0
:101C000007938DF853301A932F46052217F8011BBE
:101C10004F4800F035FA049BD0B9D90644BF2022C2
:101C20008DF853201A0744BF2B228DF853202A78B1
:101C30002A2A15D0079A2F4600200A25394611F87E
:101C4000013B303B092B4DD9B8B10FE02F46B8E727
:101C50003F4A801A0BFA00F0184304903D46D3E740
:101C6000039A111D12680391002A01DB079204E018
:101C7000524243F00203079204933B782E2B0CD17F
:101C80007B782A2B33D1039B1A1D1B680392002BF0
:101C9000B8BF4FF0FF33023705932E4D397803223A
:101CA000284600F0EDF938B14023401B03FA00F05C
:101CB000049B034301370493397827488DF8281093
:101CC00006227E1C00F0DCF9002838D0234B13BB21
:101CD000039B073323F0070308330393099B4B440B
:101CE00009936DE705FB023201200F46A6E70023AA
:101CF0000137059319460A25384610F8012B303A6A
:101D0000092A03D9002BC8D00591C6E705FB01219C
:101D100001230746F0E703AB00932246104B04A9CA
:101D20004046AFF30080B0F1FF3F8146D6D1A38992
:101D30005B063FF536AF09981DB0BDE8F08F03ABE9
:101D400000932246064B04A9404600F081F8EAE7DA
:101D50000C250008122500081625000800000000C8
:101D6000C51A00082DE9F04791461F468A680B699D
:101D7000DDF820809342B8BF1346C9F8003091F8CF
:101D8000432006460C4612B10133C9F800302368DF
:101D9000990642BFD9F800300233C9F800302568EF
:101DA00015F0060507D104F1190AE368D9F80020F7
:101DB0009B1AAB4228DC94F843302268003318BFEA
:101DC000012392062DD404F1430239463046C04720
:101DD000013020D02368E568D9F8002003F006031D
:101DE000042B08BFAD1AA36822690CBF25EAE5756C
:101DF00000259342C4BF9B1AED184FF000091A3416
:101E00004D451AD1002008E001235246394630469C
:101E1000C047013003D14FF0FF30BDE8F0870135F6
:101E2000C3E7E1185A1C302081F84300224494F89B
:101E3000451082F843100233C5E701232246394694
:101E40003046C0470130E6D009F10109D8E700006B
:101E50002DE9F04301F1430C0C46097E85B06E2953
:101E60001746064698460C9A00F0B38022D863299C
:101E700036D00AD8002900F0B980582900F08380B4
:101E800004F1420584F8421032E0642901D0692946
:101E9000F6D120681368050603F104012AD51B68F2
:101EA0001160002B03DA2D225B4284F843206F4837
:101EB0000A2239E0732900F09D8008D86F2920D0CC
:101EC0007029DDD1236843F02003236003E07529E6
:101ED00017D07829D4D1782384F84530644855E068
:101EE0001368191D1B68116004F1420584F8423023
:101EF00001238CE01B68116010F0400F18BF1BB26B
:101F0000CFE713682568181D1060280601D51B68E7
:101F100002E06806FBD51B8854486F2914BF0A22CB
:101F20000822002184F843106568A560002DC0F2E6
:101F30009580216821F004012160002B3DD1002D06
:101F400040F08E806546082A0BD12368DB0708D550
:101F5000236962689A42DEBF302305F8013C05F12F
:101F6000FF35ACEB05032361CDF800803B4603AAA7
:101F700021463046FFF7F6FE01304DD14FF0FF30DD
:101F800005B0BDE8F083394884F84510136821682E
:101F90001D1D1B6815600A060BD5CA0744BF41F01A
:101FA000200121601BB9226822F020022260102249
:101FB000B7E74D0648BF9BB2EFE76546B3FBF2F1CA
:101FC00002FB1133C35C05F8013D0B460029F5D136
:101FD000B9E7136825686169181D106028061B6839
:101FE00001D5196002E06A06FBD519800023236140
:101FF0006546B9E71368191D11601D686268002104
:10200000284600F03DF808B1401B6060636823611A
:10201000002384F84330A7E723692A46394630462F
:10202000C0470130AAD023689B0713D4E068039B04
:102030009842B8BF1846A3E701234A4639463046BE
:10204000C04701309AD00135E368039A9B1AAB422E
:10205000F2DCEBE7002504F11909F5E7002BACD120
:10206000037884F8423004F142056CE71D2500082E
:102070002E25000800000000000000000000000005
:1020800001F0FF01102A2BDB10F0070F08D010F829
:10209000013B013A8B422DD010F0070F42B3F6D12D
:1020A000F0B441EA012141EA014122F007047FF046
:1020B00000070023F0E80256083C85EA010586EA9D
:1020C000010685FA47F5A3FA87F586FA47F6A5FAD9
:1020D00087F68EB9EED1F0BC01F0FF0102F00702E5
:1020E00032B110F8013B013A83EA010313B1F8D190
:1020F0000020704701387047002D06BF3546033871
:10210000073815F0010F07D1013015F4807F02BFA9
:10211000013015F4C03F0130F0BC0138704700BFFA
:1021200010B5431E0A44914200D110BD11F8014B75
:1021300003F8014FF7E7884210B501EB020307D817
:10214000421E99420AD011F8014B02F8014FF8E7FC
:102150008342F5D98118D21AD34200D110BD13F8A9
:10216000014D01F8014DF7E738B50546002945D086
:1021700051F8043C0C1F002BB8BFE41800F0D2F853
:102180001F4A1368104633B9636014602846BDE8DF
:10219000384000F0C8B8A3420CD9216862189342B5
:1021A00004BF1A685B68636004BF52182260046051
:1021B000ECE713465A680AB1A242FAD919685818CE
:1021C000A0420BD120680144581882421960DDD129
:1021D000106852685A6001441960D7E702D90C238D
:1021E0002B60D3E7206821188A4204BF1168526827
:1021F000626004BF091821605C60C7E738BD00BF9A
:102200005002002070B5CD1C25F0030508350C2DBB
:1022100038BF0C25002D064601DBA94203D90C234B
:102220003360002070BD00F07DF8214A146821461B
:1022300091B9204C23681BB9304600F063F8206048
:102240002946304600F05EF8431C24D10C2333604D
:10225000304600F068F8E4E70B685B1B18D40B2BE2
:102260000FD90B60CD50CC18304600F05CF804F16B
:102270000B00231D20F00700C31AD3D05A42E250AE
:10228000D0E78C424B6816BF636013600C46EBE7E7
:102290000C464968CCE7C41C24F00304A04205D0D6
:1022A000211A304600F02EF80130CFD02560DBE750
:1022B0005002002054020020F8B5074614460E468E
:1022C00021B91146BDE8F840FFF79CBF22B9FFF7DE
:1022D0004BFF25462846F8BD00F026F8A0420FD255
:1022E00021463846FFF78EFF05460028F2D03146DA
:1022F0002246FFF715FF31463846FFF735FFE9E77D
:102300003546E7E738B5064C002305460846236006
:10231000FEF788F8431C02D1236803B12B6038BD57
:10232000580200207047704751F8043C181F002BDA
:10233000BCBF0B58C0187047537461636B20667242
:10234000616D653A0A000000205230203D202025B2
:102350003038580A00000000205231203D2020254E
:102360003038580A00000000205232203D2020253D
:102370003038580A00000000205233203D2020252C
:102380003038580A0000000020523132203D20250C
:102390003038580A00000000204C52203D202025F3
:1023A0003038580A00000000205043203D202025EE
:1023B0003038580A0000000020505352203D20259C
:1023C0003038580A000000004653522F4641523A16
:1023D0000A0000002043465352203D20202530387B
:1023E000580A00002048465352203D20202530380E
:1023F000580A00002044465352203D202025303802
:10240000580A00002041465352203D2020253038F4
:10241000580A0000204D4D464152203D20253038BD
:10242000580A00002042464152203D2020253038E5
:10243000580A00004D6973630A000000204C522FB7
:102440004558435F52455455524E3D20253038582B
:102450000A0000005B486172644661756C745D0A35
:10246000000000005B4275734661756C745D0A0084
:102470005B55736167654661756C745D0A000000A9
:10248000456E74657220796F75722066696E676536
:1024900072000000746F2072656769737465720062
:1024A00052656769737465726564207375636365EB
:1024B000737366756C6C79212100000069645B00A0
:1024C0005D000000456E74657220616761696E0091
:1024D000456E74657220796F75722066696E6765E6
:1024E00072207072696E7400736561726368696EE0
:1024F000672E2E2E2E2E000077656C636F6D6500A3
:102500006E6F74206578697374000000232D302B82
:102510002000686C4C0065666745464700303132E4
:10252000333435363738394142434445460030313B
:0F2530003233343536373839616263646566009B
:0825400024F2FF7F01000000FE
:10254800785634129000002000000000802500001A
:1025580000000000000000000200010014FFFFFF5F
:10256800240000200000000000000000000000001F
:102578000000000000000000000000000000000053
:102588000000000000000000000000000000000043
:102598000000000000000000000000000000000033
:1025A8000000000000000000000000000000000023
:1025B8000000000000000000000000000000000013
:0825C800000000003254769877
:040000050800019559
:00000001FF
