:020000040800F2
:1000000000000120C5020008CB020008CF02000852
:1000100041030008450300088D03000800000000AC
:10002000000000000000000000000000D5030008F0
:10003000D903000800000000DD030008AD08000837
:10004000F1030008F1030008F1030008F1030008C0
:10005000F1030008F1030008F1030008F1030008B0
:10006000F1030008F1030008F1030008F1030008A0
:10007000F1030008F1030008F1030008F103000890
:10008000F1030008F1030008F1030008000000007C
:10009000000000000000000000000000F103000864
:1000A000F1030008F1030008F1030008F103000860
:1000B000F1030008F1030008F1030008F103000850
:1000C000F1030008F1030008F1030008F103000840
:1000D000F1030008190800083508000800000000B6
:1000E000F1030008F1030008F1030008000000001C
:1000F000000000000000000000000000F103000804
:1001000000000000F1030008F1030008F1030008FB
:1001100000000000000000000000000000000000DF
:10012000F1030008F1030008F1030008F1030008DF
:10013000F1030008000000000000000000000000C3
:10014000000000000000000000000000F1030008B3
:10015000F1030008F1030008F1030008510800084A
:10016000F1030008F1030008000000000000000097
:10017000000000000000000000000000000000007F
:1001800000000000F1030008000000000000000073
:10019000F103000800B583B000F0BAF9384B394AD2
:1001A0001360394A1360394900E02146384B9942BF
:1001B0000BD20A684B6801F10C0488689842F4D9A4
:1001C0001168196004330432F8E72E4B1A68314B7A
:1001D0009A4200D0FEE72C4B1A682F4B9A42F9D175
:1001E000274B2E4A13602E4A13602E4B05E0002049
:1001F000106004329342FAD80B462B4A934204D241
:10020000194651F8082B5B68F4E7244B1B6813B9B7
:10021000234B1B6803B1FEE700F0EAFF694601A823
:1002200000F022F9214C224BE41AA4100025AC4224
:1002300014DC204C204BE41AA4100025AC4213DC43
:100240000099019800F0E8FF05461C4C1C4BE41A8D
:10025000A410002C0EDC284600F0E2F8144B53F8F2
:10026000253098470135E2E7134B53F8253098477E
:100270000135E3E7013C124B53F824309847E8E797
:10028000BABADECA0000002094000020F40300087F
:100290000C040008785634123254769898000020E6
:1002A000780200200C0400081C0400081C0400084C
:1002B0001C0400081C0400081C0400081C0400089E
:1002C0001C04000808B5FFF765FF00BEFEE71EF03E
:1002D000040F0CBFEFF30880EFF309807146414A29
:1002E00010472DE9F04182B004468846124B5E6B00
:1002F0009F6B9D6A1B6B13F0020F03D00E4BDB6AE2
:10030000002B0CDB0D4800F0B7F8CDF800803B4621
:1003100032462946204600F007F900BEFEE74BF6BC
:10032000AB6100F07BF90028ECD0034B4FF00042AA
:10033000DA6202B0BDE8F08100ED00E004220008BE
:1003400000BEFEE71EF0040F0CBFEFF30880EFF3D2
:1003500009807146244A10472DE9F04182B00446D5
:100360008846084B5E6B9F6B9D6A074800F084F8D7
:10037000CDF800803B4632462946204600F0D4F8AE
:1003800000BEFEE700ED00E0142200081EF0040F9E
:100390000CBFEFF30880EFF309807146134A104752
:1003A0002DE9F04182B004468846084B5E6B9F6B96
:1003B0009D6A074800F060F8CDF800803B46324661
:1003C0002946204600F0B0F800BEFEE700ED00E050
:1003D0002022000800BEFEE700BEFEE700BEFEE7EA
:1003E00070470000E302000859030008A103000859
:0403F00000BEFEE766
:1003F4006C22000800000020980000206C220008F5
:100404000000001000000010980000207C02002072
:080414000000001000000010C0
:10042000FEE7000008B503460C4A12685AB10B4AB1
:100430001068033323F003030344094A934206D8A8
:10044000064A136008BD054A06491160EFE701F04E
:10045000CDF90C2303604FF0FF30F3E79C00002040
:1004600000FC00207C02002001230360014B0B6094
:10047000704700BF040000200FB400B583B004AB88
:1004800053F8042B01938021064801F0E9F9002874
:1004900003DD0146034800F037F803B05DF804EBD4
:1004A00004B07047A40000202DE9F04385B0044655
:1004B0000F4643560BB10E461EE004252846214642
:1004C000ABBE0446384605B0BDE8F08314F9011B05
:1004D00004AA1A4402F8101C0133AB42F6D304AA52
:1004E0001344002203F8102C4FF00408E94640465C
:1004F0004946ABBE8046761B002EE3D03546102E13
:1005000028BF10250023E8E708B5FFF7CDFF08BD99
:1005100008B500F093F8024A024B9A6008BD00BF8C
:100520000000000800ED00E0F8B504460D4617464F
:100530001E462748FFF7A0FF21682648FFF79CFFCB
:1005400061682548FFF798FFA1682448FFF794FFEA
:10055000E1682348FFF790FF21692248FFF78CFFED
:1005600061692148FFF788FFA1692048FFF784FFF0
:10057000E1691F48FFF780FF1E48FFF77DFF29460E
:100580001D48FFF779FF1D4CE16A1D48FFF774FF16
:10059000216B1C48FFF770FFE16B1B48FFF76CFFF6
:1005A00015F0800F0AD115F4004F0CD11748FFF752
:1005B00063FF06991648FFF75FFFF8BD39461548F7
:1005C000FFF75AFFEFE731461348FFF755FFEDE716
:1005D000E8200008F8200008082100081821000879
:1005E0002821000838210008482100085821000867
:1005F00068210008782100088421000800ED00E04F
:1006000094210008A4210008B4210008E421000876
:10061000EC210008C4210008D421000883691A884D
:100620008A4201D0002070470268033A012A03D8A9
:100630000233836101207047002070470C4B1A6819
:1006400042F001021A60002199601A6822F0847257
:1006500022F480321A60074A5A601A6822F4802213
:100660001A60D960044B4FF000629A60704700BF77
:10067000003802401030002400ED00E000000000CF
:1006800070B505460C460023CB60C389DBB1012B56
:1006900036D0EA89AB881B0343EAC2332A8943EA8E
:1006A00082236A8943EA4223E360AB89012B4CD061
:1006B000002B45D0022B4DD000232360236823F06C
:1006C0002003236070BD03689A009B0F26A1D1E927
:1006D000000100F00BFF264EA6FB003251096422F8
:1006E00002FB110213013233A6FB03235B0903F063
:1006F000F00202EB011203F00F031344A360C8E7FA
:1007000002680021921841EB010317A1D1E9000111
:1007100000F0ECFE164EA6FB00325109642202FBEB
:100720001102D3003233A6FB03235B095A0002F403
:10073000F87202EB011203F007031344A360A8E769
:10074000E36843F00803E360B6E7E36843F00403BB
:10075000E360B1E7E36843F00803E360E36843F074
:100760000403E360A8E700BF00C2EB0B0000000039
:100770001F85EB51036823F020030360C36843F433
:100780000053C3607047036813F0800FFBD04160D3
:10079000036813F0400FFBD0036823F040030360AD
:1007A000704700000023026812F0200F04D1064AAF
:1007B000934201D80133F6E7044A934202D04068DD
:1007C000C0B27047FF2070471FA1070020A107009B
:1007D000036813F0200F03D043680B7001207047AB
:1007E0000020704731B1012908D1C36843F02003CC
:1007F000C3607047C36823F02003C36070470023C1
:10080000036070474068C0B270470000014B186039
:10081000704700BF7402002008B5044B00221A6024
:10082000034B1B6803B1984708BD00BF001001408F
:100830007402002008B5044B00221A60034B1B68A9
:1008400003B1984708BD00BF004400406C0200207F
:1008500008B5044B00221A60034B1B6803B198478C
:1008600008BD00BF0014014070020020024A136856
:1008700023F004031360704710E000E00A4B586057
:1008800000229A601A6842F001021A60064B1B6847
:1008900013F4803FFAD0044B1A6822F001021A6068
:1008A00000225A609A60704710E000E008B50D4BD6
:1008B0001B78012B06D00C4B1B6803B198470B4BE0
:1008C0001B6808BD094B1A6822F002021A601A68F8
:1008D00022F001021A6000225A609A60014B1A70DD
:1008E000E9E700BF280100202401002010E000E01B
:1008F0000E4B1A6842F400221A601A6822F4802211
:100900001A601A6842F001021A601A6842F48032D2
:100910001A609A6822F001029A609A6822F0020234
:100920009A609A6842F080029A60704700380240EC
:1009300003282AD81F292AD8431E032B29D8DFE8E9
:1009400003F0020C141C10B4134C236B012202FAA6
:1009500001F11943216310BC70470F4A136C012049
:1009600000FA01F11943116470470B4A536C0120DE
:1009700000FA01F1194351647047074A136D0120D1
:1009800000FA01F1194311657047002070470020FB
:1009900070470020704700BF0038024000F01F027F
:1009A000400901239340024A42F82030704700BFBB
:1009B00000E100E000F01F024009012393402030D5
:1009C000014A42F82030704700E100E010B40128ED
:1009D00012D018B102281DD010BC7047144B1868F3
:1009E000490003248C4020EA04001860186802FAC9
:1009F00001F101431960EFE70E4B18684900032429
:100A00008C4020EA04001860186802FA01F10143E2
:100A10001960E1E7084B1868490003248C4020EA7C
:100A200004001860186802FA01F101431960D3E765
:100A300000000240000402400008024002BB0128FE
:100A40000CD010B1022812D070471E484368012212
:100A500002FA01F123EA0101416070471A48436834
:100A6000012202FA01F123EA0101416070471748AF
:100A70004368012202FA01F123EA01014160704753
:100A8000012A00D0704701280BD010B1022810D0E5
:100A900070470C484368012202FA01F11943416092
:100AA000704709484368012202FA01F11943416085
:100AB000704706484368012202FA01F11943416078
:100AC000E0E700BF000002400004024000080240CE
:100AD00010B4012812D018B102281DD010BC7047E4
:100AE000144B9868490003248C4020EA0400986065
:100AF000986802FA01F101439960EFE70E4B98689C
:100B0000490003248C4020EA04009860986802FAA7
:100B100001F101439960E1E7084B9868490003241B
:100B20008C4020EA04009860986802FA01F10143C1
:100B30009960D3E700000240000402400008024030
:100B40000F2933D8032A31D810B4012812D018B194
:100B500002281DD010BC7047154BD86849000324EB
:100B60008C4020EA0400D860D86802FA01F1014301
:100B7000D960EFE70F4BD868490003248C4020EA86
:100B80000400D860D86802FA01F10143D960E1E7B6
:100B9000094BD868490003248C4020EA0400D8603F
:100BA000D86802FA01F10143D960D3E7704700BF6A
:100BB000000002400004024000080240012A07D061
:100BC000002A3DD101282AD000B3022830D0704736
:100BD00001280BD010B1022810D070471948436982
:100BE000012202FA01F11943416170471648436935
:100BF000012202FA01F11943416170471348436928
:100C0000012202FA01F11943416170470D4843691D
:100C1000012202FA01F123EA0101416170470A4809
:100C20004369012202FA01F123EA0101416170479F
:100C300006484369012202FA01F123EA01014161F8
:100C4000704700BF0000024000040240000802405C
:100C500010B4072920D818B101280FD010BC704754
:100C6000204B186A89000F248C4020EA0400186287
:100C7000186A02FA01F101431962EFE71A4B186A88
:100C800089000F248C4020EA04001862186A02FAD6
:100C900001F101431962E1E70F29DFD888B101288A
:100CA000DCD11048446AA1F108039B000F21994050
:100CB00024EA01014162446A02FA03F121434162DC
:100CC000CCE7084B5C6AA1F1080080000F2181404D
:100CD00024EA010159625C6A02FA00F12143596277
:100CE000BCE700BF000002400004024010B504460B
:100CF000827841780078FFF769FEE27861782078A1
:100D0000FFF79CFE227961782078FFF7E1FE627997
:100D100061782078FFF714FFA27961782078FFF7D7
:100D200097FF10BD70B54C4CEF212046FFF72BFD0F
:100D300001212046FFF727FDFF212046FFF723FD75
:100D4000FF212046FFF71FFDFF212046FFF71BFD77
:100D5000FF212046FFF717FD01212046FFF713FD75
:100D600000212046FFF70FFD03212046FFF70BFD72
:100D700001212046FFF707FD00212046FFF703FD74
:100D800005212046FFF7FFFC002416E00134092C62
:100D900012DC3148FFF706FD0546092CF6D12E4E30
:100DA0003046FFF7FFFC3046FFF7FCFC002D51D02A
:100DB000212DEBD101204CE00134092C48DC2648E0
:100DC000FFF7F0FC0546254B1855092CF4D1224EAF
:100DD0003046FFF7E7FC3046FFF7E4FC0DB1212D6C
:100DE000EAD11D4CEF212046FFF7CDFC0121204622
:100DF000FFF7C9FCFF212046FFF7C5FCFF21204675
:100E0000FFF7C1FCFF212046FFF7BDFCFF21204674
:100E1000FFF7B9FC01212046FFF7B5FC0021204671
:100E2000FFF7B1FC04212046FFF7ADFC022120466C
:100E3000FFF7A9FC01212046FFF7A5FC0021204671
:100E4000FFF7A1FC08212046FFF79DFC00249EE748
:100E5000002070BD0120FCE7004400402C01002070
:100E600070B54C4CEF212046FFF78DFC0121204648
:100E7000FFF789FCFF212046FFF785FCFF21204674
:100E8000FFF781FCFF212046FFF77DFCFF21204674
:100E9000FFF779FC01212046FFF775FC0021204671
:100EA000FFF771FC03212046FFF76DFC012120466E
:100EB000FFF769FC00212046FFF765FC052120466D
:100EC000FFF761FC002416E00134092C12DC3148E4
:100ED000FFF768FC45B2092CF6D12E4E3046FFF7DD
:100EE00061FC3046FFF75EFC002D51D0212DEBD187
:100EF00001204CE00134092C48DC2648FFF752FC65
:100F000045B2254B1855092CF4D1224E3046FFF737
:100F100049FC3046FFF746FC0DB1212DEAD11D4CAE
:100F2000EF212046FFF72FFC01212046FFF72BFC85
:100F3000FF212046FFF727FCFF212046FFF723FC77
:100F4000FF212046FFF71FFCFF212046FFF71BFC77
:100F500001212046FFF717FC00212046FFF713FC74
:100F600004212046FFF70FFC02212046FFF70BFC6F
:100F700002212046FFF707FC00212046FFF703FC73
:100F800009212046FFF7FFFB00249EE7002070BDEB
:100F90000120FCE7004400409001002038B5224CBD
:100FA000EF212046FFF7EFFB01212046FFF7EBFB87
:100FB000FF212046FFF7E7FBFF212046FFF7E3FB79
:100FC000FF212046FFF7DFFBFF212046FFF7DBFB79
:100FD00001212046FFF7D7FB00212046FFF7D3FB76
:100FE00003212046FFF7CFFB05212046FFF7CBFB6F
:100FF00000212046FFF7C7FB09212046FFF7C3FB6E
:10100000002400E00134092C0CDC0748FFF7CAFB80
:10101000092CF7D1044D2846FFF7C4FB2846FFF7FB
:10102000C1FBEFE738BD00BF004400402DE9F041AF
:1010300080460F46CEB206F10E05EDB2294CEF21E7
:101040002046FFF7A0FB01212046FFF79CFBFF2174
:101050002046FFF798FBFF212046FFF794FBFF2176
:101060002046FFF790FBFF212046FFF78CFB012174
:101070002046FFF788FB00212046FFF784FB06216E
:101080002046FFF780FB06212046FFF77CFB414608
:101090002046FFF778FBC7F307212046FFF773FBD5
:1010A00031462046FFF76FFB00212046FFF76BFB20
:1010B00029462046FFF767FB002401E00134E4B233
:1010C000092C0CD80748FFF76DFB092CF6D1054D0C
:1010D0002846FFF767FB2846FFF764FBEEE7BDE80D
:1010E000F08100BF0044004070B53B4CEF2120462A
:1010F000FFF749FB01212046FFF745FBFF21204672
:10110000FFF741FBFF212046FFF73DFBFF21204673
:10111000FFF739FBFF212046FFF735FB0121204671
:10112000FFF731FB00212046FFF72DFB0821204669
:10113000FFF729FB04212046FFF725FB012120466C
:10114000FFF721FB00212046FFF71DFB0A21204667
:10115000FFF719FB00212046FFF715FB5A21204617
:10116000FFF711FB00212046FFF70DFB72212046FF
:10117000FFF709FB002400E00134092C28DC1648A5
:10118000FFF710FB0546154B1855092CF4D1124EEC
:101190003046FFF707FB124B18703046FFF702FB93
:1011A000104B18703046FFF7FDFA0F4B18703046A1
:1011B000FFF7F8FA0D4B18703046FFF7F3FA304698
:1011C000FFF7F0FA212D05D0002DD5D1012000E048
:1011D000002070BD0120FCE700440040F401002025
:1011E0005A0200205B020020580200205902002011
:1011F0007047000010B5064C2046FFF703FB054B77
:1012000018702046FFF7FBFA2520FFF7D3FB10BD2F
:10121000001001402D0000202DE9F0419CB0FFF7A7
:1012200067FB11210220FFF783FB04210320FFF756
:101230007FFB00210120FFF77BFB01210846FFF720
:1012400077FBFFF713FB0E210320FFF771FB00254F
:101250001A95CDF86B5002238DF869308DF86A30FD
:1012600001248DF86C4007268DF86E601895CDF836
:10127000635003228DF861208DF862308DF8644050
:101280008DF866601695CDF85B504FF009088DF823
:1012900059808DF85A308DF85C408DF85E60149559
:1012A000CDF853500A278DF851708DF852308DF8D3
:1012B00054408DF856601295CDF84B508DF84A4049
:1012C000442229460DEB030000F096FA8DF8004009
:1012D00005238DF801308DF802408DF80740062374
:1012E0008DF808308DF809408DF80E408DF80F60AC
:1012F0008DF810408DF812408DF8154008238DF8B8
:1013000016308DF817408DF819408DF81C408DF877
:101310001D808DF81E408DF820408DF823408DF8FB
:1013200024708DF825408DF8274006E0C5EBC500F8
:101330006844FFF7DBFC0135EDB2052DF6D91AA89C
:10134000FFF7D4FC18A8FFF7D1FC16A8FFF7CEFCD6
:1013500014A8FFF7CBFC12A8FFF7C8FC59484FF4BC
:1013600016530360584D2946FFF78AF9574C21461A
:101370005748FFF785F92846FFF7FCF92046FFF7A5
:10138000F9F95448FFF742FA2520FFF707FB00213F
:101390002046FFF727FA55E001285BD14FF47A7019
:1013A000FFF76CFA10E04C48FFF768FAFFF758FDBA
:1013B0004A4B187001281ED04FF47A70FFF75EFA7E
:1013C00047214248FFF7DFF9444B1B78012B39D006
:1013D0004FF47A70FFF752FAFFF7A4FC404B1870F5
:1013E0000128E0D04FF47A70FFF748FA47213748D8
:1013F000FFF7C9F9E8E7FFF7D1FD3748FFF73EFAF5
:10140000384C21780120FFF711FE53212F48FFF7B8
:10141000BAF92378013323700023304A1370304A1D
:101420001370314B49221A700CE046212748FFF710
:10143000AAF92948FFF722FA2B4B49221A70284BA8
:1014400000221A70284C21462048FFF7C1F9237862
:10145000522BA1D0412BF5D10128F3D14FF47A7052
:10146000FFF70CFA1E4B1B78012BEBD0FFF75AFC51
:101470001B4B18700128F5D1174C2046FFF7FEF9D9
:10148000FFF78CFD2046FFF7F9F9FFF72DFE012845
:10149000CBD153210D48FFF776F901229DF8491071
:1014A0009DF84800FFF78AFB2046FFF7E7F90E4C4E
:1014B000492525702520FFF771FA2570084B002279
:1014C0001A70BFE71C0000200044004000100140DB
:1014D0000C000020F511000840420F005D020020C2
:1014E0005C0200202C0000202D00002053B94AB9D6
:1014F000002908BF00281CBF4FF0FF314FF0FF301C
:1015000000F072B9ADF1080C6DE904CE00F006F8F8
:10151000DDF804E0DDE9022304B070472DE9F0476F
:10152000089E04468846002B4BD18A42154667D94F
:10153000B2FA82F24AB1C2F1200701FA02F320FAAC
:1015400007F7954047EA030894404FEA154E230CED
:10155000B8FBFEF71FFA85FC0EFB178843EA084329
:1015600007FB0CF1994209D9EB1807F1FF3080F025
:101570001B81994240F21881023F2B445B1AA4B2AE
:10158000B3FBFEF00EFB103344EA034400FB0CFCFB
:10159000A44509D92C1900F1FF3380F00781A44537
:1015A00040F2048102382C4440EA0740A4EB0C04CA
:1015B00000271EB1D4400023C6E900433946BDE8E8
:1015C000F0878B4209D9002E00F0EB800027C6E996
:1015D000000138463946BDE8F087B3FA83F7002F9B
:1015E00047D18B4202D3824200F2FA80841A61EB27
:1015F000030301209846002EE0D0C6E90048DDE74D
:1016000002B9FFDEB2FA82F2002A40F08F80491B55
:101610004FEA154E1FFA85F80127B1FBFEFC230C9B
:101620000EFB1C1143EA014308FB0CF1994207D958
:10163000EB180CF1FF3002D2994200F2CD808446C3
:10164000591AA3B2B1FBFEF00EFB101443EA044496
:1016500008FB00F8A04507D92C1900F1FF3302D28E
:10166000A04500F2B6801846A4EB080440EA0C40FE
:101670009FE7C7F1200CBB4022FA0CFE4EEA030E96
:1016800001FA07F420FA0CF521FA0CF34FEA1E4890
:101690002543B3FBF8F92C0C08FB19331FFA8EFA1B
:1016A00044EA034309FB0AF49C4202FA07F200FAF7
:1016B00007F10BD91EEB030309F1FF3080F087809F
:1016C0009C4240F28480A9F1020973441B1BADB215
:1016D000B3FBF8F008FB103345EA034400FB0AFAB9
:1016E000A24508D91EEB040400F1FF336BD2A245DA
:1016F00069D90238744440EA0940A0FB0289A4EB8E
:101700000A044C45C2464B4654D351D0002E69D0F2
:10171000B1EB0A0564EB030404FA0CFCFD40FC4049
:101720004CEA0505C6E90054002747E7C2F120034B
:1017300020FA03F7954001FA02F021FA03F34FEA89
:10174000154E3843010CB3FBFEF71FFA85F80EFB6C
:10175000173341EA034107FB08F38B4204FA02F412
:1017600007D9691807F1FF3C2FD28B422DD9023FD0
:101770002944CB1A81B2B3FBFEF00EFB103341EAD1
:10178000034100FB08F38B4207D9691800F1FF3CC5
:1017900017D28B4215D902382944C91A40EA0747A3
:1017A0003BE73746304609E70746E7E61846FBE6DB
:1017B0004145ABD2B8EB020A69EB0E020138134681
:1017C000A4E76046E9E7184695E76746D1E7814612
:1017D0007CE702382C4447E7ACF1020C2B442FE79E
:1017E000384608E73746E9E6704700BF014B1868FE
:1017F000704700BF3000002002440346934200D1EE
:10180000704703F8011BF9E730B5141E05469BB07D
:10181000184605DA8B232B604FF0FF301BB030BD2C
:101820004FF40273ADF80C3014BF04F1FF332346BC
:10183000029305934FF6FF7300910491ADF80E30BB
:1018400002461E9B6946284600F072F8431CBCBF46
:101850008B232B60002CE1D0009B00221A70DDE767
:1018600007B5009313460A46014603480068FFF790
:10187000CBFF03B05DF804FB300000202DE9F047FA
:101880008E689E4282460C469046994637D88A8991
:1018900012F4906F31D0256809696F1A65690223C7
:1018A00005EB450595FBF3F509F101033B449D422A
:1018B00038BF1D46530530D5294600F07BFB064650
:1018C00050B90C23CAF80030A38943F04003A38128
:1018D0004FF0FF30BDE8F0873A46216900F0F8FA92
:1018E000A38923F4906343F08003A381266165619B
:1018F0003E44ED1B2660A5604E464E4500D94E463F
:1019000032464146206800F0EEFAA3689B1BA360B4
:1019100023681E4426600020DCE72A4600F0A4FB72
:1019200006460028E2D12169504600F0F5FAC8E7E2
:101930002DE9F04F9DB0804603938B891D060C4620
:1019400016460FD50B696BB9402100F033FB2060C0
:10195000206128B90C23C8F800304FF0FF30C7E0F1
:10196000402363610023099320238DF8293030231D
:101970008DF82A304FF0010B37463D4615F8013BF4
:101980000BB1252B3ED1B7EB060A0BD0534632469E
:1019900021464046FFF772FF013000F0A480099B0A
:1019A000534409933B78002B00F09D8000234FF0B7
:1019B000FF32CDE90523049307938DF853301A9332
:1019C0002F46052217F8011B4F4800F031FA049BFF
:1019D000D0B9D90644BF20228DF853201A0744BF3E
:1019E0002B228DF853202A782A2A15D0079A2F46C1
:1019F00000200A25394611F8013B303B092B4DD90F
:101A0000B8B10FE02F46B8E73F4A801A0BFA00F052
:101A1000184304903D46D3E7039A111D12680391C1
:101A2000002A01DB079204E0524243F002030792CE
:101A300004933B782E2B0CD17B782A2B33D1039B3C
:101A40001A1D1B680392002BB8BF4FF0FF330237FB
:101A500005932E4D39780322284600F0E9F938B174
:101A60004023401B03FA00F0049B03430137049317
:101A7000397827488DF8281006227E1C00F0D8F906
:101A8000002838D0234B13BB039B073323F00703F5
:101A900008330393099B4B4409936DE705FB02321E
:101AA00001200F46A6E700230137059319460A25B2
:101AB000384610F8012B303A092A03D9002BC8D038
:101AC0000591C6E705FB012101230746F0E703ABBB
:101AD00000932246104B04A94046AFF30080B0F1BA
:101AE000FF3F8146D6D1A3895B063FF536AF099803
:101AF0001DB0BDE8F08F03AB00932246064B04A94E
:101B0000404600F081F8EAE730220008362200085B
:101B10003A220008000000007D1800082DE9F04777
:101B200091461F468A680B69DDF820809342B8BF52
:101B30001346C9F8003091F8432006460C4612B10E
:101B40000133C9F800302368990642BFD9F8003044
:101B50000233C9F80030256815F0060507D104F1F5
:101B6000190AE368D9F800209B1AAB4228DC94F8E4
:101B700043302268003318BF012392062DD404F1AC
:101B8000430239463046C047013020D02368E5681B
:101B9000D9F8002003F00603042B08BFAD1AA36890
:101BA00022690CBF25EAE57500259342C4BF9B1A44
:101BB000ED184FF000091A344D451AD1002008E005
:101BC0000123524639463046C047013003D14FF019
:101BD000FF30BDE8F0870135C3E7E1185A1C30201B
:101BE00081F84300224494F8451082F843100233F0
:101BF000C5E70123224639463046C0470130E6D0CA
:101C000009F10109D8E700002DE9F04301F1430C87
:101C10000C46097E85B06E291746064698460C9AF2
:101C200000F0B38022D8632936D00AD8002900F00A
:101C3000B980582900F0838004F1420584F84210ED
:101C400032E0642901D06929F6D1206813680506BD
:101C500003F104012AD51B681160002B03DA2D2241
:101C60005B4284F843206F480A2239E0732900F070
:101C70009D8008D86F2920D07029DDD1236843F0DA
:101C80002003236003E0752917D07829D4D1782365
:101C900084F84530644855E01368191D1B681160CD
:101CA00004F1420584F8423001238CE01B68116086
:101CB00010F0400F18BF1BB2CFE713682568181D3E
:101CC0001060280601D51B6802E06806FBD51B885A
:101CD00054486F2914BF0A220822002184F84310B7
:101CE0006568A560002DC0F29580216821F004018F
:101CF0002160002B3DD1002D40F08E806546082AE2
:101D00000BD12368DB0708D5236962689A42DEBFDE
:101D1000302305F8013C05F1FF35ACEB05032361E9
:101D2000CDF800803B4603AA21463046FFF7F6FE79
:101D300001304DD14FF0FF3005B0BDE8F083394898
:101D400084F84510136821681D1D1B6815600A067C
:101D50000BD5CA0744BF41F0200121601BB922689E
:101D600022F0200222601022B7E74D0648BF9BB246
:101D7000EFE76546B3FBF2F102FB1133C35C05F8F4
:101D8000013D0B460029F5D1B9E713682568616963
:101D9000181D106028061B6801D5196002E06A064C
:101DA000FBD51980002323616546B9E71368191D27
:101DB00011601D6862680021284600F039F808B1FA
:101DC000401B606063682361002384F84330A7E709
:101DD00023692A4639463046C0470130AAD02368D5
:101DE0009B0713D4E068039B9842B8BF1846A3E74B
:101DF00001234A4639463046C04701309AD0013562
:101E0000E368039A9B1AAB42F2DCEBE7002504F18E
:101E10001909F5E7002BACD1037884F8423004F1BE
:101E200042056CE741220008522200080000000031
:101E300001F0FF01102A2BDB10F0070F08D010F87B
:101E4000013B013A8B422DD010F0070F42B3F6D17F
:101E5000F0B441EA012141EA014122F007047FF098
:101E600000070023F0E80256083C85EA010586EAEF
:101E7000010685FA47F5A3FA87F586FA47F6A5FA2B
:101E800087F68EB9EED1F0BC01F0FF0102F0070237
:101E900032B110F8013B013A83EA010313B1F8D1E2
:101EA0000020704701387047002D06BF35460338C3
:101EB000073815F0010F07D1013015F4807F02BFFC
:101EC000013015F4C03F0130F0BC0138704700BF4D
:101ED00010B5431E0A44914200D110BD11F8014BC8
:101EE00003F8014FF7E7884210B501EB020307D86A
:101EF000421E99420AD011F8014B02F8014FF8E74F
:101F00008342F5D98118D21AD34200D110BD13F8FB
:101F1000014D01F8014DF7E738B50546002945D0D8
:101F200051F8043C0C1F002BB8BFE41800F0D2F8A5
:101F30001F4A1368104633B9636014602846BDE831
:101F4000384000F0C8B8A3420CD921686218934207
:101F500004BF1A685B68636004BF521822600460A3
:101F6000ECE713465A680AB1A242FAD91968581820
:101F7000A0420BD120680144581882421960DDD17B
:101F8000106852685A6001441960D7E702D90C23DF
:101F90002B60D3E7206821188A4204BF1168526879
:101FA000626004BF091821605C60C7E738BD00BFEC
:101FB0006002002070B5CD1C25F0030508350C2DFE
:101FC00038BF0C25002D064601DBA94203D90C239E
:101FD0003360002070BD00F07DF8214A146821466E
:101FE00091B9204C23681BB9304600F063F820609B
:101FF0002946304600F05EF8431C24D10C233360A0
:10200000304600F068F8E4E70B685B1B18D40B2B34
:102010000FD90B60CD50CC18304600F05CF804F1BD
:102020000B00231D20F00700C31AD3D05A42E25000
:10203000D0E78C424B6816BF636013600C46EBE739
:102040000C464968CCE7C41C24F00304A04205D028
:10205000211A304600F02EF80130CFD02560DBE7A2
:102060006002002064020020F8B5074614460E46C0
:1020700021B91146BDE8F840FFF79CBF22B9FFF730
:102080004BFF25462846F8BD00F026F8A0420FD2A7
:1020900021463846FFF78EFF05460028F2D031462C
:1020A0002246FFF715FF31463846FFF735FFE9E7CF
:1020B0003546E7E738B5064C002305460846236059
:1020C000FEF7B0F9431C02D1236803B12B6038BD81
:1020D000680200207047704751F8043C181F002B1D
:1020E000BCBF0B58C0187047537461636B20667295
:1020F000616D653A0A000000205230203D20202505
:102100003038580A00000000205231203D202025A0
:102110003038580A00000000205232203D2020258F
:102120003038580A00000000205233203D2020257E
:102130003038580A0000000020523132203D20255E
:102140003038580A00000000204C52203D20202545
:102150003038580A00000000205043203D20202540
:102160003038580A0000000020505352203D2025EE
:102170003038580A000000004653522F4641523A68
:102180000A0000002043465352203D2020253038CD
:10219000580A00002048465352203D202025303860
:1021A000580A00002044465352203D202025303854
:1021B000580A00002041465352203D202025303847
:1021C000580A0000204D4D464152203D2025303810
:1021D000580A00002042464152203D202025303838
:1021E000580A00004D6973630A000000204C522F0A
:1021F0004558435F52455455524E3D20253038587E
:102200000A0000005B486172644661756C745D0A87
:10221000000000005B4275734661756C745D0A00D6
:102220005B55736167654661756C745D0A000000FB
:10223000232D302B2000686C4C00656667454647AF
:102240000030313233343536373839414243444532
:1022500046003031323334353637383961626364A1
:03226000656600B0
:08226400B8F2FF7F0100000049
:10226C0078563412A00000200000000080250000E9
:10227C0000000000000000000200010080250000AA
:10228C000000000000000000020001001449FFFFE4
:10229C0034000020000000000000000000000000DE
:1022AC000000000000000000000000000000000022
:1022BC000000000000000000000000000000000012
:1022CC000000000000000000000000000000000002
:1022DC0000000000000000000000000000000000F2
:1022EC0000000000000000000000000000000000E2
:0822FC00000000003254769846
:040000050800019559
:00000001FF
